{
  "_format": "hh-sol-artifact-1",
  "contractName": "FailoverCameraSystem",
  "sourceName": "contracts/camera.sol",
  "abi": [
    {
      "inputs": [
        {
          "internalType": "uint256",
          "name": "_primaryCameraId",
          "type": "uint256"
        },
        {
          "internalType": "uint256",
          "name": "_secondaryCameraId",
          "type": "uint256"
        }
      ],
      "stateMutability": "nonpayable",
      "type": "constructor"
    },
    {
      "anonymous": false,
      "inputs": [
        {
          "indexed": false,
          "internalType": "uint256",
          "name": "cameraId",
          "type": "uint256"
        },
        {
          "indexed": false,
          "internalType": "enum FailoverCameraSystem.CameraStatus",
          "name": "status",
          "type": "uint8"
        }
      ],
      "name": "CameraStatusUpdated",
      "type": "event"
    },
    {
      "anonymous": false,
      "inputs": [
        {
          "indexed": false,
          "internalType": "uint256",
          "name": "fromCameraId",
          "type": "uint256"
        },
        {
          "indexed": false,
          "internalType": "uint256",
          "name": "toCameraId",
          "type": "uint256"
        },
        {
          "indexed": false,
          "internalType": "uint256",
          "name": "timestamp",
          "type": "uint256"
        }
      ],
      "name": "TimestampSynchronized",
      "type": "event"
    },
    {
      "inputs": [
        {
          "internalType": "uint256",
          "name": "",
          "type": "uint256"
        }
      ],
      "name": "cameras",
      "outputs": [
        {
          "internalType": "enum FailoverCameraSystem.CameraStatus",
          "name": "status",
          "type": "uint8"
        },
        {
          "internalType": "uint256",
          "name": "timestamp",
          "type": "uint256"
        }
      ],
      "stateMutability": "view",
      "type": "function"
    },
    {
      "inputs": [
        {
          "internalType": "uint256",
          "name": "cameraId",
          "type": "uint256"
        }
      ],
      "name": "getCameraStatus",
      "outputs": [
        {
          "internalType": "enum FailoverCameraSystem.CameraStatus",
          "name": "",
          "type": "uint8"
        },
        {
          "internalType": "uint256",
          "name": "",
          "type": "uint256"
        }
      ],
      "stateMutability": "view",
      "type": "function"
    },
    {
      "inputs": [],
      "name": "owner",
      "outputs": [
        {
          "internalType": "address",
          "name": "",
          "type": "address"
        }
      ],
      "stateMutability": "view",
      "type": "function"
    },
    {
      "inputs": [],
      "name": "primaryCameraId",
      "outputs": [
        {
          "internalType": "uint256",
          "name": "",
          "type": "uint256"
        }
      ],
      "stateMutability": "view",
      "type": "function"
    },
    {
      "inputs": [],
      "name": "secondaryCameraId",
      "outputs": [
        {
          "internalType": "uint256",
          "name": "",
          "type": "uint256"
        }
      ],
      "stateMutability": "view",
      "type": "function"
    },
    {
      "inputs": [
        {
          "internalType": "uint256",
          "name": "cameraId",
          "type": "uint256"
        },
        {
          "internalType": "enum FailoverCameraSystem.CameraStatus",
          "name": "status",
          "type": "uint8"
        }
      ],
      "name": "updateCameraStatus",
      "outputs": [],
      "stateMutability": "nonpayable",
      "type": "function"
    }
  ],
  "bytecode": "0x608060405234801561001057600080fd5b50604051610a77380380610a77833981810160405281019061003291906101b4565b336000806101000a81548173ffffffffffffffffffffffffffffffffffffffff021916908373ffffffffffffffffffffffffffffffffffffffff1602179055508160028190555080600381905550604051806040016040528060018081111561009e5761009d6101f4565b5b81526020014281525060016000600254815260200190815260200160002060008201518160000160006101000a81548160ff021916908360018111156100e7576100e66101f4565b5b0217905550602082015181600101559050506040518060400160405280600180811115610117576101166101f4565b5b81526020014281525060016000600354815260200190815260200160002060008201518160000160006101000a81548160ff021916908360018111156101605761015f6101f4565b5b0217905550602082015181600101559050505050610223565b600080fd5b6000819050919050565b6101918161017e565b811461019c57600080fd5b50565b6000815190506101ae81610188565b92915050565b600080604083850312156101cb576101ca610179565b5b60006101d98582860161019f565b92505060206101ea8582860161019f565b9150509250929050565b7f4e487b7100000000000000000000000000000000000000000000000000000000600052602160045260246000fd5b610845806102326000396000f3fe608060405234801561001057600080fd5b50600436106100625760003560e01c806336773a291461006757806346b2f7fd146100985780638da5cb5b146100b6578063b48eaf7b146100d4578063c579377d146100f2578063f4b3c15814610123575b600080fd5b610081600480360381019061007c919061050e565b61013f565b60405161008f9291906105c1565b60405180910390f35b6100a06101d6565b6040516100ad91906105ea565b60405180910390f35b6100be6101dc565b6040516100cb9190610646565b60405180910390f35b6100dc610200565b6040516100e991906105ea565b60405180910390f35b61010c6004803603810190610107919061050e565b610206565b60405161011a9291906105c1565b60405180910390f35b61013d60048036038101906101389190610686565b610237565b005b600080600254831480610153575060035483145b610192576040517f08c379a000000000000000000000000000000000000000000000000000000000815260040161018990610723565b60405180910390fd5b6001600084815260200190815260200160002060000160009054906101000a900460ff16600160008581526020019081526020016000206001015491509150915091565b60035481565b60008054906101000a900473ffffffffffffffffffffffffffffffffffffffff1681565b60025481565b60016020528060005260406000206000915090508060000160009054906101000a900460ff16908060010154905082565b60008054906101000a900473ffffffffffffffffffffffffffffffffffffffff1673ffffffffffffffffffffffffffffffffffffffff163373ffffffffffffffffffffffffffffffffffffffff16146102c5576040517f08c379a00000000000000000000000000000000000000000000000000000000081526004016102bc9061078f565b60405180910390fd5b6002548214806102d6575060035482145b610315576040517f08c379a000000000000000000000000000000000000000000000000000000000815260040161030c90610723565b60405180910390fd5b806001600084815260200190815260200160002060000160006101000a81548160ff0219169083600181111561034e5761034d61053b565b5b02179055506001808111156103665761036561053b565b5b8160018111156103795761037861053b565b5b0361038857610387826103c5565b5b7fd2a3b2ea790d4b0eaf21f51e54250e14a8c643cb1747b22d213022b4e43ec5a182826040516103b99291906107af565b60405180910390a15050565b600060025482146103d8576002546103dc565b6003545b90506001808111156103f1576103f061053b565b5b6001600083815260200190815260200160002060000160009054906101000a900460ff1660018111156104275761042661053b565b5b036104b357600160008281526020019081526020016000206001015460016000848152602001908152602001600020600101819055507f69e047f53001485e9617385a75554c3d4a2279eeb98d2166b22420f7471d8882818360016000858152602001908152602001600020600101546040516104a6939291906107d8565b60405180910390a16104cf565b4260016000848152602001908152602001600020600101819055505b5050565b600080fd5b6000819050919050565b6104eb816104d8565b81146104f657600080fd5b50565b600081359050610508816104e2565b92915050565b600060208284031215610524576105236104d3565b5b6000610532848285016104f9565b91505092915050565b7f4e487b7100000000000000000000000000000000000000000000000000000000600052602160045260246000fd5b6002811061057b5761057a61053b565b5b50565b600081905061058c8261056a565b919050565b600061059c8261057e565b9050919050565b6105ac81610591565b82525050565b6105bb816104d8565b82525050565b60006040820190506105d660008301856105a3565b6105e360208301846105b2565b9392505050565b60006020820190506105ff60008301846105b2565b92915050565b600073ffffffffffffffffffffffffffffffffffffffff82169050919050565b600061063082610605565b9050919050565b61064081610625565b82525050565b600060208201905061065b6000830184610637565b92915050565b6002811061066e57600080fd5b50565b60008135905061068081610661565b92915050565b6000806040838503121561069d5761069c6104d3565b5b60006106ab858286016104f9565b92505060206106bc85828601610671565b9150509250929050565b600082825260208201905092915050565b7f496e76616c69642063616d657261204944000000000000000000000000000000600082015250565b600061070d6011836106c6565b9150610718826106d7565b602082019050919050565b6000602082019050818103600083015261073c81610700565b9050919050565b7f4e6f74207468652041646d696e00000000000000000000000000000000000000600082015250565b6000610779600d836106c6565b915061078482610743565b602082019050919050565b600060208201905081810360008301526107a88161076c565b9050919050565b60006040820190506107c460008301856105b2565b6107d160208301846105a3565b9392505050565b60006060820190506107ed60008301866105b2565b6107fa60208301856105b2565b61080760408301846105b2565b94935050505056fea2646970667358221220d88672700e444a6fd0c50ef014025863e36c80413310ae3d02573e7cc88eb12364736f6c63430008120033",
  "linkReferences": {},
  "deployedLinkReferences": {}
}